:1000000032C1000061C100005FC100005DC100009D
:100010005BC1000059C1000057C1000055C100007C
:1000200053C1000051C100004FC100004DC100008C
:100030004BC1000049C1000047C1000045C100009C
:1000400043C1000041C100003FC100003DC10000AC
:100050003BC1000039C1000037C100000C94050904
:1000600033C100000C94CF080C94A6082DC10000E9
:100070002BC1000029C1000027C1000025C10000DC
:1000800023C1000021C100001FC100001DC10000EC
:100090001BC1000019C1000017C1000015C10000FC
:1000A00013C1000011C100000FC100000DC100000C
:1000B0000BC1000009C1000007C1000005C100001C
:1000C00003C1000001C10000FFC00000FDC000002E
:1000D000FBC00000F9C00000F7C00000F5C0000040
:1000E000F3C0000000002100240027002A002D009A
:1000F0003000330001010000040107010A01EFBFD5
:10010000BD4600EFBFBD432000EFBFBD46202048E5
:1001100065617420696E6465783A2000EFBFBD4365
:10012000200025202054656D7065726174757265BC
:100130003A200048756D69646974793A2000466117
:10014000696C656420746F20726561642066726FEB
:100150006D204448542073656E736F722100000057
:100160002200250028002B002E003100340002015F
:100170000000050108010B0100000A0B02090C0D2B
:100180000E0807030401000000000000000000004A
:10019000000000000000000000000000000000005F
:1001A000000000001211100000000000000000001C
:1001B000000000000000000000000000000000003F
:1001C00020002300260029002C002F00320000010F
:1001D00000000301060109010505050507050808DA
:1001E0000808020202020A0A0808040404040101C1
:1001F00001010101010103030303030303030407D6
:1002000007070C0C0C0C0C0C0C0C0202020206066C
:100210000606060606060B0B0B0B0B0B0B0B01025F
:100220001020200808102040102040800201020108
:1002300008040201010204081020408080402010C0
:100240000804020180040201804020100804020119
:100250000804020101020408102040800102040881
:10026000102040804F0911241FBECFEFD1E2DEBF26
:10027000CDBF00E00CBF23E0AAE3B2E001C01D92B5
:10028000A933B207E1F712E0A0E0B2E0EAEEFBE149
:1002900000E00BBF02C007900D92AA33B107D9F757
:1002A00011E0C3E3D1E000E006C021970109802FEF
:1002B000FE010E94EB0DC233D10780E00807A9F7C9
:1002C0000E94AE090C94F30D9BCEE3E4F2E0A0890A
:1002D000B18982E08C93A485B5851C92A685B785EB
:1002E0008FEC8C93108EA489B58986E08C93A289BB
:1002F000B3898C9180618C93A289B3898C91886039
:100300008C93A289B3898C9180688C930288F3893D
:10031000E02D80818F7D80830895CF92DF92EF92D0
:10032000FF92CF93DF93C82F80912C038C3009F478
:100330005EC038F48B30F1F060E070E080EC9FE755
:100340004FC085518230C0F7D09128036D2F70E0E7
:10035000762F662766277F7780912903682B90E0A8
:1003600080E00E945C0B2DEC3CEC4CEC5DE30E94C9
:10037000BD0B59C06091280370E090E080E00E94BE
:100380005C0B6B017C01D0912903D7FF0AC0AC0143
:100390009B0160E070E080E89FEB0E94930C6B0192
:1003A0007C01DF706D2F70E090E080E00E945E0BBA
:1003B0002DEC3CEC4CEC5DE30E94BD0BA7019601DB
:1003C0000E94940CCC2361F026E636E646EE5FE30D
:1003D0000E94BD0B20E030E040E052E40E94940C0B
:1003E000DF91CF91FF90EF90DF90CF900895D09163
:1003F00028036D2F70E090E080E00E945C0B6B01A1
:100400007C01609129036F7070E090E080E00E94B1
:100410005E0B2DEC3CEC4CEC5DE30E94BD0BA701A8
:1004200096010E94940CD7FFCDCF9058CBCFCF929E
:10043000DF92EF92FF92CF93DF93B0912D03A0E074
:100440008111AB2F80912E0390E0880F991FAC0192
:1004500042545E4FC0903303D0903403E090350394
:10046000F090360330E020E0FA01C591D491E881A4
:10047000B90190E080E0EB23EA130AC02F5F3F4F01
:100480006C157D058E059F0578F36FEF7FEFCB012F
:10049000DF91CF91FF90EF90DF90CF900895AF92D2
:1004A000BF92CF92DF92EF92FF920F931F93CF9361
:1004B000DF936C017B018B01040F151FEB015E01C3
:1004C000AE18BF08C017D10759F06991D601ED9158
:1004D000FC910190F081E02DC6011995892B79F7E7
:1004E000C501DF91CF911F910F91FF90EF90DF90A9
:1004F000CF90BF90AF900895FC01538D448D252F70
:1005000030E0842F90E0821B930B541710F0CF96AD
:10051000089501970895FC01918D828D981761F0DF
:10052000A28DAE0FBF2FB11D5D968C91928D9F5FF6
:100530009F73928F90E008958FEF9FEF0895FC01D5
:10054000918D828D981731F0828DE80FF11D858D88
:1005500090E008958FEF9FEF0895FC01918D228D1B
:10056000892F90E0805C9F4F821B91098F739927A0
:10057000089583E492E0F1DF21E0892B09F420E083
:10058000822F0895FC01A48DA80FB92FB11DA35A85
:10059000BF4F2C91848D90E001968F739927848FA3
:1005A000A689B7892C93A089B1898C9183708064C6
:1005B0008C93938D848D981306C00288F389E02D67
:1005C00080818F7D80830895EF92FF920F931F9318
:1005D000CF93DF93EC0181E0888F9B8D8C8D9813F6
:1005E0001AC0E889F989808185FF15C09FB7F89402
:1005F000EE89FF896083E889F9898081837080644E
:1006000080839FBF81E090E0DF91CF911F910F9198
:10061000FF90EF900895F62E0B8D10E00F5F1F4FA7
:100620000F731127E02E8C8D8E110BC00FB607FCB7
:10063000FACFE889F989808185FFF5CFCE01A2DF65
:10064000F2CFEB8DEC0FFD2FF11DE35AFF4FF0823F
:100650009FB7F8940B8FEA89FB8980818062D0CFA5
:100660000F931F93CF93DF938C01D0E0C0E0F8018C
:10067000EC0FFD1F6491662339F083E492E0A4DF60
:10068000892B11F02196F3CFCE01DF91CF911F91ED
:100690000F910895CF93DF93EC01888D8823B1F0FB
:1006A000AA89BB89E889F9898C9185FD03C080817D
:1006B00086FD0CC00FB607FCF7CF8C9185FFF2CFFB
:1006C000808185FFEDCFCE015DDFEACFDF91CF9155
:1006D000089580E090E0892B21F04BDF81110E948A
:1006E000000080E090E0892B49F080E090E0892BC9
:1006F00029F00E94000081110E94000080E090E03B
:10070000892B49F080E090E0892B29F00E940000BD
:1007100081110E94000080E090E0892B49F080E088
:1007200090E0892B29F00E94000081110C940000B8
:100730000895CF93DF9390E0FC01E25EFD4F24919A
:1007400088529E4FFC0184918823D1F090E0880F5D
:10075000991FFC01EC51FF4FA591B491FC01E25AA5
:10076000FE4FC591D491623071F49FB7F8943C91DB
:10077000822F809583238C93E8812E2B28839FBF23
:10078000DF91CF9108958FB7F894EC912E2B2C9395
:100790008FBFF6CF3FB7F89480913F02909140020F
:1007A000A0914102B091420226B5A89B05C02F3FFF
:1007B00019F00196A11DB11D3FBFBA2FA92F982F87
:1007C0008827BC01CD01620F711D811D911D42E082
:1007D000660F771F881F991F4A95D1F708958F924A
:1007E0009F92AF92BF92CF92DF92EF92FF924B0116
:1007F0005C01D0DF6B017C01CDDF6C197D098E09B6
:100800009F09683E734081059105B0F321E0821A8B
:100810009108A108B10888EEC80E83E0D81EE11C3B
:10082000F11C81149104A104B10431F7FF90EF9001
:10083000DF90CF90BF90AF909F908F9008952FB78B
:10084000F89460913B0270913C0280913D0290913E
:100850003E022FBF08958F929F92AF92BF92CF9288
:10086000DF92EF92FF920F931F93CF93DF93CDB759
:10087000DEB7C054D1400FB6F894DEBF0FBECDBF77
:10088000DEDF00912F03109130032091310330916E
:1008900032036B017C01C01AD10AE20AF30A970104
:1008A0008601003D174021053105B0F480913703E2
:1008B000C05CDE4F0FB6F894DEBF0FBECDBFDF9138
:1008C000CF911F910F91FF90EF90DF90CF90BF904D
:1008D000AF909F908F90089560932F037093300393
:1008E000809331039093320310922A0310922903CC
:1008F00010922803109227031092260362E0809141
:100900002B0317DF61E070E080E090E068DF61E0DA
:1009100080912B030EDF20912B0330E0F901E85882
:10092000FE4F8491F901E25EFD4F949128523E4FB3
:10093000F9012491222309F433C0882311F1815055
:100940008231F8F4E82FF0E08827E655FB4F8F4F0F
:100950000C94EB0D01050505BC04F904FD04C1046C
:1009600008050E05120518051C05200526052A0593
:10097000C1042E0534053805809180008F7780935F
:100980008000E22FF0E0EE0FFF1FE25AFE4FA5912C
:10099000B4918FB7F894EC9190959E239C938FBF60
:1009A00080912C038551823008F066C08BE291E182
:1009B0000197F1F762E080912B03BBDE8091380351
:1009C00090E08230910538F0880F991F880F991FA9
:1009D00005970197F1F7F89480E029DD6F3F7F4F8D
:1009E0008F4F9F4F09F04EC010923703789480E0EC
:1009F0005FCF809180008F7DC2CF80918000877F04
:100A0000BECF84B58F7784BDBCCF84B58F7DFBCF3F
:100A10008091B0008F778093B000B3CF8091B00009
:100A20008F7DF9CF809190008F7780939000A9CF30
:100A3000809190008F7DF9CF80919000877FF5CFD6
:100A40008091A0008F778093A0009BCF8091A00021
:100A50008F7DF9CF8091A000877FF5CF8091200115
:100A60008F77809320018DCF809120018F7DF9CFEA
:100A700080912001877FF5CF64E170E080E090E015
:100A8000AEDE98CF81E0D3DC6F3F7F4F8F4F9F4F1B
:100A900009F4AACFCE0101967C015E019FEBA91A51
:100AA0009EEFB90A870180E0C2DCF80160837183A0
:100AB0008283938381E0BBDCF80164837583868342
:100AC0009783085F1F4FA016B10669F7789430E04E
:100AD00020E0F70180809180A280B380448155811D
:100AE00066817781FFEF8F169F06AF06BF0631F054
:100AF0004F3F8FEF58076807780719F410923703B4
:100B000076CFF90183E0F595E7958A95E1F7EA5DFF
:100B1000FC4F8081880F84169506A606B70618F14B
:100B200080832F5F3F4F98E0E90EF11C283231059A
:100B300081F640912A032091260380912703280FF4
:100B40003327331F80912803280F311D80912903FB
:100B5000820F932F911D99274817190679F681E086
:100B600080933703A5CE8160DBCFFC01019000208C
:100B7000E9F73197AF01481B590BBC0183E492E0C0
:100B80008ECC8F929F92AF92BF920F931F93CF9371
:100B9000DF93CDB7DEB7A1970FB6F894DEBF0FBED7
:100BA000CDBF19A2423008F44AE08E010F5D1F4FFD
:100BB000842E912CB12CA12CA501940192D6E62F64
:100BC000B901CA01EA30ECF4E05DD801EE938D0181
:100BD000232B242B252B81F790E080E0109711F038
:100BE000CD01C3DFA1960FB6F894DEBF0FBECDBF17
:100BF000DF91CF911F910F91BF90AF909F908F90F9
:100C00000895E95CE2CF4F925F926F927F928F924C
:100C10009F92AF92BF92CF92DF92EF92FF920F938B
:100C20001F93CF936B017C01742EAC019B01BAD74B
:100C3000882391F082E192E0CF911F910F91FF9074
:100C4000EF90DF90CF90BF90AF909F908F907F906C
:100C50006F905F904F9089CF46015701E894B7F8A5
:100C60002FEF3FEF4FE75FE7C501B4019BD781113D
:100C70000CC02FEF3FEF4FE75FE7C501B40118D578
:100C800018161CF486E192E0D7CF2FEF3FEF4FE725
:100C90005FE4C701B60140D718161CF48AE192E060
:100CA000CBCF2FEF3FEF4FE75FECC701B60100D589
:100CB00087FDF4CF20E030E0A901C701B601F8D4E8
:100CC00010E000E087FF09C06DE283E492E07CDC85
:100CD0008C01F7FAF094F7F8F094C0E060E070E06F
:100CE00080E09FE37C1639F020E030E040E251E400
:100CF0007FD6CF5FF7CFA701960116D62B013C0117
:100D0000DFD64B015C014AE03CDF7C01E00EF11EC6
:100D1000CC2381F1C501B401CFD49B01AC01C30147
:100D2000B20101D64B015C016EE283E492E04CDC3F
:100D3000E80EF91EC150F0F020E030E040E251E44E
:100D4000C501B4011AD52B013C01BAD64B01B12C17
:100D5000A12C4AE0C501B40114DFE80EF91EC5015B
:100D6000B401AAD49B01AC01C301B201DCD54B0193
:100D70005C01E0CFC701CF911F910F91FF90EF90E1
:100D8000DF90CF90BF90AF909F908F907F906F90AB
:100D90005F904F9008954F925F926F927F928F92E3
:100DA0009F92AF92BF92CF92DF92EF92FF920F93FA
:100DB000CF93DF9300D000D01F921F92CDB7DEB744
:100DC0006B017C0149015A0101110CC026E636E68F
:100DD00046EE5FE3D2D420E030E040E052E4A4D518
:100DE0006B017C0120E030E048E852E4C701B60125
:100DF0009AD52AE939E949E95FE3BFD42B013C01DF
:100E000020E030E044E752E4C701B6018DD59B01F4
:100E1000AC01C301B20188D52B013C0122E133E8CA
:100E200040EC5DE3C501B401A8D49B01AC01C30152
:100E3000B2017AD520E030E040E05FE39ED42B01A0
:100E40003C0120E030E04EE952E466D618160CF082
:100E500001C1A7019601C701B6018FD42B013C0146
:100E6000A5019401C501B40188D46D837E838F836D
:100E7000988721E133E243E050E4C701B6017DD415
:100E800029E134E849E252E44ED569837A838B83C1
:100E90009C8326E13BE442E251E4C501B4016DD4F8
:100EA0009B01AC0169817A818B819C813DD56983ED
:100EB0007A838B839C8328E436E246E65EEBC701A7
:100EC000B6015BD4A501940158D49B01AC016981A2
:100ED0007A818B819C8128D569837A838B839C83DB
:100EE00020EE3FE040EE5BEBC301B20146D49B0134
:100EF000AC0169817A818B819C8116D569837A8363
:100F00008B839C8328EF37E840E65DEB6D817E8123
:100F10008F81988532D49B01AC0169817A818B8164
:100F20009C8102D569837A838B839C832CEA3DE084
:100F300041EA5AE3C301B20120D4A50194011DD4B2
:100F40009B01AC0169817A818B819C81EDD469839D
:100F50007A838B839C8328EC3FE84FE55AE3C701F3
:100F6000B6010BD42D813E814F81588506D49B015B
:100F7000AC0169817A818B819C81D6D469837A8323
:100F80008B839C8321EF3BE845E056EBC301B20124
:100F9000F4D32D813E814F815885EFD39B01AC0165
:100FA00069817A818B819C81BFD42B013C0120E037
:100FB00030E040E551E4C501B4017AD387FF7AC03F
:100FC00020E030E040EA52E4C701B601A5D587FD34
:100FD00071C020E030E040EE52E4C701B60168D3B2
:100FE00018160CF4A8C0A501940160E070E080E53B
:100FF00091E499D420E030E040E85EE3BED34B01B9
:101000005C0120E030E04EEB52E4C701B6018BD426
:101010006B017C0120E030E0A9017ED518160CF0B0
:1010200041C0A701960160E070E088E891E47BD4BC
:101030002EE33DEE40E75DE3A0D376D59B01AC0106
:10104000C501B4019AD39B01AC01C301B2016BD4B9
:101050002B013C0101110EC020E030E040E052E4E1
:10106000C301B20160D426E838E34EE05FE385D3E4
:101070002B013C01C301B20128960FB6F894DEBFE4
:101080000FBECDBFDF91CF910F91FF90EF90DF901A
:10109000CF90BF90AF909F908F907F906F905F9018
:1010A0004F90089520E030E048E851E4C701B601D0
:1010B0003BD4BECF20E030E04AEA52E4C501B4019F
:1010C0002BD518163CF620E030E040EA52E4C70188
:1010D000B60122D587FDBECF20E030E04EEA52E4D3
:1010E000C701B601E5D218160CF4B4CF20E030E009
:1010F0004AEA52E4C501B40116D42DEC3CEC4CECA8
:101100005DE33BD34B015C01A701960160E070E019
:101110008EEA92E408D42DEC3CEC4CE45EE32DD353
:101120009B01AC01C501B40128D39B01AC01C301F3
:10113000B201FAD38DCF20E030E04AEA52E4C50193
:10114000B401EAD418160CF4C7CF84CF1F920F92C3
:101150000FB60F9211240BB60F922F933F934F931C
:101160005F936F937F938F939F93AF93BF93EF930F
:10117000FF9383E492E006DAFF91EF91BF91AF9184
:101180009F918F917F916F915F914F913F912F919F
:101190000F900BBE0F900FBE0F901F9018951F92CF
:1011A0000F920FB60F9211240BB60F922F938F93BD
:1011B0009F93EF93FF93E0915302F091540280814B
:1011C000E0915902F0915A0282FD1DC090818091F8
:1011D0005C028F5F8F7320915D02821741F0E09176
:1011E0005C02F0E0ED5BFD4F958F80935C02FF9118
:1011F000EF919F918F912F910F900BBE0F900FBE8B
:101200000F901F9018958081F2CF1F920F920FB60A
:101210000F9211242F933F938F939F93AF93BF937C
:1012200080913B0290913C02A0913D02B0913E0220
:1012300030913A0223E0230F2D3758F50196A11D76
:10124000B11D20933A0280933B0290933C02A093FD
:101250003D02B0933E0280913F0290914002A091E6
:101260004102B09142020196A11DB11D80933F023F
:1012700090934002A0934102B0934202BF91AF917C
:101280009F918F913F912F910F900FBE0F901F90C4
:10129000189526E8230F0296A11DB11DD2CFE3E4D5
:1012A000F2E01382128288EE93E0A0E0B0E0848343
:1012B0009583A683B78384E092E09183808385EC55
:1012C00090E09587848784EC90E09787868780EC10
:1012D00090E0918B808B81EC90E0938B828B82EC01
:1012E00090E0958B848B86EC90E0978B868B118EAB
:1012F000128E138E148EE0EEF2E0168217821086A4
:101300001186128613861486158616861786108A0D
:10131000118A128A138A148A158AA6E2B3E087E03A
:1013200015968C9315978BE016968C931697E5E29D
:10133000F2E0E4911796EC931797EFEDF1E0E4916A
:101340001896EC93189740E85EE360E070E01D9615
:101350004D935D936D937C9350970895CF93DF9356
:1013600000D000D01F921F92CDB7DEB7789484B51D
:10137000826084BD84B5816084BD85B5826085BD91
:1013800085B5816085BD80916E00816080936E001F
:101390001092810080918100826080938100809111
:1013A00081008160809381008091800081608093C2
:1013B00080008091B10084608093B1008091B00082
:1013C00081608093B0008091910082608093910051
:1013D0008091910081608093910080919000816064
:1013E000809390008091A10082608093A100809101
:1013F000A10081608093A1008091A0008160809312
:10140000A0008091210182608093210180912101BF
:10141000816080932101809120018160809320016F
:1014200080917A00846080937A0080917A00826053
:1014300080937A0080917A00816080937A00809115
:101440007A00806880937A001092C1001092220383
:101450001092230310922403109225031092E202AB
:101460001092E3021092E4021092E502E8D96B01B7
:101470007C014B015C0188EB880E8BE0981EA11C5F
:10148000B11CDDD96C157D058E059F0528F08616EB
:101490009706A806B906A8F768EE73E080E090E02A
:1014A0009ED90E946501CBD96093E2027093E3025A
:1014B0008093E4029093E5028EE192E056DBBFD97F
:1014C0006B017C014B015C018AE0880E911CA11C20
:1014D000B11CB5D96C157D058E059F0528F08616C3
:1014E0009706A806B906A8F781E08093F602A7D967
:1014F0006093E2027093E3028093E4029093E5022A
:101500008FE292E032DB0E94650162E080912B0362
:1015100010D995D9605D77408109910960932F03B7
:1015200070933003809331039093320387E3809369
:10153000380360ED77E080E090E051D98CD98823C2
:1015400051F080912C038B3030F08D3058F0855164
:10155000823008F454C0C12CD12C20ECE22E2FE7AD
:10156000F22E1AC06091270370E090E080E0A6D0D0
:101570002DEC3CEC4CEC5DE300D16B017C01609107
:10158000260370E090E080E099D09B01AC01C70198
:10159000B601CAD16B017C015ED9412C512C90EC73
:1015A000692E9FE7792E882329F080E00E948D0123
:1015B0002B013C0150D9882391F181E00E948D01DB
:1015C0004B015C01A7019601C701B601EBD2811165
:1015D0000EC0A3019201C301B201E4D2811107C080
:1015E000A5019401C501B401DDD28823F9F08EE391
:1015F00091E036D886E392E0B8DA6BD89ACF609162
:1016000026037091270376276727762790E080E0EE
:1016100053D02DEC3CEC4CEC5DE3AFD0BBCF812C38
:10162000912C80ECA82E8FE7B82ECCCF01E0A7013B
:101630009601C501B401AFDB69837A838B839C83F8
:1016400000E0A7019601C301B201A5DB6D837E8393
:101650008F83988783E391E003D842E0C701B60106
:10166000D2DA82E291E00E94300342E0C301B2018B
:10167000CADA8CE191E00E94300342E0C501B40176
:10168000C2DA89E091E00E94300342E06D817E8100
:101690008F819885B8DA83E091E00E94300342E0C0
:1016A00069817A818B819C81AEDA8EEF90E0A1CF47
:1016B00040D008F481E00895E89409C097FB3EF417
:1016C00090958095709561957F4F8F4F9F4F99238F
:1016D000A9F0F92F96E9BB279395F695879577950D
:1016E0006795B795F111F8CFFAF4BB0F11F460FFCD
:1016F0001BC06F5F7F4F8F4F9F4F16C0882311F025
:1017000096E911C0772321F09EE8872F762F05C038
:10171000662371F096E8862F70E060E02AF09A95D3
:10172000660F771F881FDAF7880F9695879597F9C8
:101730000895990F0008550FAA0BE0E8FEEF161662
:101740001706E807F907C0F012161306E407F507B5
:1017500098F0621B730B840B950B39F40A2661F029
:10176000232B242B252B21F408950A2609F4A140CC
:10177000A6958FEF811D811D08950BD078C069D08B
:1017800028F06ED018F0952309F05AC05FC01124DC
:10179000A2C07ED0A0F3959FD1F3950F50E0551FC6
:1017A000629FF001729FBB27F00DB11D639FAA27B6
:1017B000F00DB11DAA1F649F6627B00DA11D661F05
:1017C000829F2227B00DA11D621F739FB00DA11D26
:1017D000621F839FA00D611D221F749F3327A00DE0
:1017E000611D231F849F600D211D822F762F6A2F7C
:1017F00011249F5750408AF0E1F088234AF0EE0F01
:10180000FF1FBB1F661F771F881F91505040A9F70D
:101810009E3F510570F014C05EC05F3FECF3983EF0
:10182000DCF3869577956795B795F795E7959F5F74
:10183000C1F7FE2B880F911D9695879597F908950E
:1018400097F99F6780E870E060E008959FEF80EC73
:10185000089500240A941616170618060906089516
:1018600000240A9412161306140605060895092E7C
:101870000394000C11F4882352F0BB0F40F4BF2BEB
:1018800011F460FF04C06F5F7F4F8F4F9F4F08952B
:1018900057FD9058440F551F59F05F3F71F0479521
:1018A000880F97FB991F61F09F3F79F08795089506
:1018B000121613061406551FF2CF4695F1DF08C025
:1018C000161617061806991FF1CF86957105610542
:1018D00008940895E894BB2766277727CB0197F9EA
:1018E0000895A1E21A2EAA1BBB1BFD010DC0AA1F61
:1018F000BB1FEE1FFF1FA217B307E407F50720F079
:10190000A21BB30BE40BF50B661F771F881F991FF3
:101910001A9469F760957095809590959B01AC013C
:10192000BD01CF0108955058BB27AA270ED09FCFE5
:1019300090DF30F095DF20F031F49F3F11F41EF47A
:1019400085CF0EF4E095E7FB7BCFE92FA1DF80F395
:10195000BA17620773078407950718F071F49EF5AC
:10196000B9CF0EF4E0950B2EBA2FA02D0B01B901C3
:1019700090010C01CA01A0011124FF27591B99F005
:10198000593F50F4503E68F11A16F040A22F232F11
:10199000342F4427585FF3CF469537952795A79561
:1019A000F0405395C9F77EF41F16BA0B620B730B08
:1019B000840BBAF09150A1F0FF0FBB1F661F771F79
:1019C000881FC2F70EC0BA0F621F731F841F48F42E
:1019D000879577956795B795F7959E3F08F0B3CFB4
:1019E0009395880F08F09927EE0F9795879508959E
:1019F0000CD03DCF35DF40F02CDF30F021F45F3FDD
:101A000019F01ECF511167CF21CF42DF98F39923F0
:101A1000C9F35523B1F3951B550BBB27AA276217B2
:101A20007307840738F09F5F5F4F220F331F441FF7
:101A3000AA1FA9F333D00E2E3AF0E0E830D091502F
:101A40005040E695001CCAF729D0FE2F27D0660F1C
:101A5000771F881FBB1F261737074807AB07B0E85B
:101A600009F0BB0B802DBF01FF2793585F4F2AF071
:101A70009E3F510568F0E4CE2ECF5F3FECF3983ED9
:101A8000DCF3869577956795B795F7959F5FC9F7CE
:101A9000880F911D9695879597F90895E1E0660F57
:101AA000771F881FBB1F621773078407BA0720F0D0
:101AB000621B730B840BBA0BEE1F88F7E095089539
:101AC000EFDE88F09F5790F0B92F9927B751A0F01B
:101AD000D1F0660F771F881F991F1AF0BA95C9F7C2
:101AE00012C0B13081F0F6DEB1E00895F3CE672F79
:101AF000782F8827B85F39F0B93FCCF38695779572
:101B00006795B395D9F73EF490958095709561955A
:101B10007F4F8F4F9F4F08950CDE08F48FEF08958D
:101B200011F40EF493CE42C0BBDED0F39923D9F367
:101B3000CEF39F57550B87FF47D00024A0E640EA1D
:101B4000900180585695979528F4805C660F771F12
:101B5000881F20F026173707480730F4621B730BE5
:101B6000840B202931294A2BA69517940794202508
:101B700031254A2758F7660F771F881F20F0261750
:101B80003707480730F4620B730B840B200D311DAF
:101B9000411DA09581F7B901842F9158880F969522
:101BA00087950895C6DD880B990B08959F3F31F006
:101BB000915020F4879577956795B795880F911D7B
:101BC0009695879597F9089591505040660F771F25
:101BD000881FD2F70895EE0FFF1F881F8BBF079055
:0A1BE000F691E02D1994F894FFCF60
:101BEA0000000000E4024F027C024A03AD028B02AD
:101BFA009F026E616E00696E66006F766600564DD2
:101C0A004450565F317C315F564D4450560A005657
:0A1C1A004D4450525F000D0A000017
:00000001FF
